:0200000480007A
:10000000370100801301010BE7000100130000001D
:1000100000000000000000000000000000000000E0
:10002000232E11FE232C51FE232A61FE232871FE6C
:100030002326A1FE2324B1FE2322C1FE2320D1FECC
:10004000232EE1FC232CF1FC232A01FD232811FDA2
:100050002326C1FD2324D1FD2322E1FD2320F1FD30
:10006000130101FCEF00802A8320C1038322810356
:1000700003234103832301030325C1028325810256
:1000800003264102832601020327C1018327810140
:100090000328410183280101032EC100832E810022
:1000A000032F4100832F010013010104730020304E
:1000B000971100009381019E170100001301811820
:1000C000170500001305051D970500009385851C85
:1000D0006308B50023200500130545006FF05FFF9E
:1000E0001385C1951301C1FF9385C195630EB500BA
:1000F00083260500130545002320A100E7800600A4
:10010000032501006FF05FFE130141003715000069
:1001100013050588731045303725000013058580C9
:1001200073100530EF00C01E6F00000000000000DB
:0401300000000000CB
:1002400068656C6C6F20776F726C64206172747972
:100250002061372076310000526F43432065786576
:100260006375746564000000526F43432054455326
:10027000542053554343455353210000526F434389
:100280002054455354204641494C210000000000B1
:10029000B70601F0034705006314070067800000FC
:1002A00083A7460093D7070193F7F70FE38A07FE6A
:1002B00023A0E600130515006FF0DFFD130101FF19
:1002C00023261100EFF0DFFC370701F083274700FA
:1002D00093D7070193F7F70FE38A07FE9307A00070
:1002E0002320F7008320C100130101016780000073
:1002F00093070000370700F06394A70067800000B1
:1003000083264700938717006FF01FFF6780000068
:10031000130101FE232C8100232E1100232A9100BA
:1003200023282101232631012324410123225101C5
:10033000B70700F01307F00023A4E7001304100030
:100340003705008023A2870013050524EFF01FF76F
:10035000930720000B64F402370500801305852500
:10036000EFF0DFF593073000631CF40637050080DB
:100370001305852637841E00EFF05FF4B70400F004
:10038000930A100013040448130920009309400045
:10039000130A80001305040023A25401EFF05FF557
:1003A0001305040023A22401EFF09FF413050400B9
:1003B00023A23401EFF0DFF31305040023A244016C
:1003C000EFF01FF31305040023A23401EFF05FF2F6
:1003D0001305040023A22401EFF09FF16FF09FFBAF
:0C03E000370500801305C5276FF0DFF81B
:040000058000000077
:00000001FF
