:10000000130E10008B600002639C0006130E20008C
:1000100093000000130100008BE12002639211069F
:10002000130E3000B700020193804030130100002E
:100030008BE1200263961104130E40003712060371
:100040001302C290B70002019380403037010402CE
:10005000130181608BE1200263944102130E500072
:100060009302600093001000130120009301300000
:100070008BE020028BE03002639450006F0000019F
:10008000370110F0130141F22320C101370110F0B4
:10009000130101F2232001001300000013000000EF
:1000A0001300000013000000130000001300000004
:00000001FF
