:10000000130E1000B7D04C3E9380C0CC37D1CC3EFD
:100010001301C1CC8BE12004130E2000B700C8BF30
:1000200037A110C01301713D8BE12006130E300083
:10003000B7D04CBE9380C0CC37D14C3F1301C1CC5C
:100040008BE12006130E4000B70002019380403080
:1000500037010402130181608BE120026F0000016F
:10006000370110F0130141F22320C101370110F0D4
:10007000130101F22320010013000000130000000F
:100080001300000013000000130000001300000024
:00000001FF
