:10000000130E1000B7D04C3E9380C0CC37D1CC3EFD
:100010001301C1CC8BE1200037A2193F1302929942
:100020006316320A130E2000B700C8BF37A110C0F4
:100030001301713D8BE12002130E3000B7D04CBE8E
:100040009380C0CC37D14C3F1301C1CC8BE120044D
:10005000130E4000B70002019380403037010402C4
:10006000130181608BE12006130E5000B75034124B
:100070009380806737416587130111328BE1200639
:10008000130E6000B700C8BF37A110C01301713D47
:100090008BE12004130E7000B7D04CBE9380C0CC0F
:1000A00037D14C3F1301C1CC8BE12002130E8000ED
:1000B000B7A0BB4193809099373175411301A1F1ED
:1000C0008BE120008BE120026F000001370110F06E
:1000D000130141F22320C101370110F0130101F295
:1000E0002320010013000000130000001300000093
:0C00F000130000001300000013000000CB
:00000001FF
