:10000000130E10008B600002639C0008130E20008A
:1000100093000000130100008BE0200263920008AF
:10002000130E3000B700020193804030130100002E
:100030008BE1200263961106130E4000371206036F
:100040001302C290B70002019380403037010402CE
:10005000130181608BE1200263944104130E500070
:10006000370200FF130222109300F0FF3701010056
:10007000130131208BE1200263944102130E6000D2
:1000800093026000930010001301200093013000E0
:100090008BE020028BE03002639450006F0000017F
:1000A000370110F0130141F22320C101370110F094
:1000B000130101F2232001001300000013000000CF
:1000C00013000000130000001300000013000000E4
:00000001FF
